Microchip MPLAB XC8 Compiler V1.45 ()

Linker command line:

--edf=C:\Program Files (x86)\Microchip\xc8\v1.45\dat\en_msgs.txt -cs \
  -h+dist/default/production\GTS_2000_R2.0.production.sym \
  --cmf=dist/default/production\GTS_2000_R2.0.production.cmf -z -Q12F1571 \
  -oC:\Users\PhilG\AppData\Local\Temp\sj8k.2 \
  -Mdist/default/production/GTS_2000_R2.0.production.map -E1 -ver=XC8 \
  --acfsm=1493 -ASTACK=02039h-0206fh -pstack=STACK -ACODE=00h-03FFh \
  -ASTRCODE=00h-03FFh -ASTRING=00h-0FFhx4 -ACONST=00h-0FFhx4 \
  -AENTRY=00h-0FFhx4 -ACOMMON=070h-07Fh -ABANK0=020h-06Fh -ABANK1=0A0h-0BFh \
  -ABIGRAM=02000h-0206Fh -ARAM=020h-06Fh,0A0h-0BFh \
  -AABS1=020h-07Fh,0A0h-0BFh -ASFR0=00h-01Fh -ASFR1=080h-09Fh \
  -ASFR2=0100h-016Fh -ASFR3=0180h-01EFh -ASFR4=0200h-026Fh \
  -ASFR5=0280h-02EFh -ASFR6=0300h-036Fh -ASFR7=0380h-03EFh \
  -ASFR8=0400h-046Fh -ASFR9=0480h-04EFh -ASFR10=0500h-056Fh \
  -ASFR11=0580h-05EFh -ASFR12=0600h-066Fh -ASFR13=0680h-06EFh \
  -ASFR14=0700h-076Fh -ASFR15=0780h-07EFh -ASFR16=0800h-086Fh \
  -ASFR17=0880h-08EFh -ASFR18=0900h-096Fh -ASFR19=0980h-09EFh \
  -ASFR20=0A00h-0A6Fh -ASFR21=0A80h-0AEFh -ASFR22=0B00h-0B6Fh \
  -ASFR23=0B80h-0BEFh -ASFR24=0C00h-0C6Fh -ASFR25=0C80h-0CEFh \
  -ASFR26=0D00h-0D6Fh -ASFR27=0D80h-0DEFh -ASFR28=0E00h-0E6Fh \
  -ASFR29=0E80h-0EEFh -ASFR30=0F00h-0F6Fh -ASFR31=0F80h-0FEFh \
  -preset_vec=00h,intentry=04h,init,end_init -ppowerup=CODE -pcinit=CODE \
  -pfunctab=ENTRY -ACONFIG=08007h-08008h -pconfig=CONFIG -DCONFIG=2 \
  -AIDLOC=08000h-08003h -pidloc=IDLOC -DIDLOC=2 -DCODE=2 -DSTRCODE=2 \
  -DSTRING=2 -DCONST=2 -DENTRY=2 -k \
  C:\Users\PhilG\AppData\Local\Temp\sj8k.obj \
  dist/default/production\GTS_2000_R2.0.production.obj 

Object code version is 3.11

Machine type is 12F1571



                Name                               Link     Load   Length Selector   Space Scale
C:\Users\PhilG\AppData\Local\Temp\sj8k.obj
                end_init                            182      182        1        8       0
                reset_vec                             0        0        1        0       0
                config                             8007     8007        2    1000E       0
dist/default/production\GTS_2000_R2.0.production.obj
                cinit                               183      183        A        8       0
                intentry                              4        4      17E        8       0
                text13                              35D      35D       25        8       0
                text12                              3A6      3A6       15        8       0
                text11                              3C9      3C9        C        8       0
                text10                              2D4      2D4       32        8       0
                text9                               227      227       44        8       0
                text8                               382      382       24        8       0
                text6                               3BB      3BB        E        8       0
                text5                               2A2      2A2       32        8       0
                text4                               306      306       30        8       0
                text3                               3DB      3DB        6        8       0
                text2                               336      336       27        8       0
                text1                               18D      18D       9A        8       0
                maintext                            26B      26B       37        8       0
                cstackBANK0                          3C       3C       13       20       1
                cstackCOMMON                         70       70        D       70       1
                clrtext                             3D5      3D5        6        8       0
                bssBANK0                             20       20       1C       20       1
                bssCOMMON                            7D       7D        1       70       1
                nvBANK0                              4F       4F        A       20       1

TOTAL           Name                               Link     Load   Length     Space
        CLASS   STACK          

        CLASS   CODE           
                end_init                            182      182        1         0
                cinit                               183      183        A         0
                intentry                              4        4      17E         0
                reset_vec                             0        0        1         0
                text13                              35D      35D       25         0
                text12                              3A6      3A6       15         0
                text11                              3C9      3C9        C         0
                text10                              2D4      2D4       32         0
                text9                               227      227       44         0
                text8                               382      382       24         0
                text6                               3BB      3BB        E         0
                text5                               2A2      2A2       32         0
                text4                               306      306       30         0
                text3                               3DB      3DB        6         0
                text2                               336      336       27         0
                text1                               18D      18D       9A         0
                maintext                            26B      26B       37         0
                clrtext                             3D5      3D5        6         0

        CLASS   STRCODE        

        CLASS   STRING         

        CLASS   CONST          

        CLASS   ENTRY          

        CLASS   COMMON         
                cstackCOMMON                         70       70        D         1
                bssCOMMON                            7D       7D        1         1

        CLASS   BANK0          
                cstackBANK0                          3C       3C       13         1
                bssBANK0                             20       20       1C         1
                nvBANK0                              4F       4F        A         1

        CLASS   BANK1          

        CLASS   BIGRAM         

        CLASS   RAM            

        CLASS   ABS1           
                abs_s1                               7E       7E        2         1

        CLASS   SFR0           

        CLASS   SFR1           

        CLASS   SFR2           

        CLASS   SFR3           

        CLASS   SFR4           

        CLASS   SFR5           

        CLASS   SFR6           

        CLASS   SFR7           

        CLASS   SFR8           

        CLASS   SFR9           

        CLASS   SFR10          

        CLASS   SFR11          

        CLASS   SFR12          

        CLASS   SFR13          

        CLASS   SFR14          

        CLASS   SFR15          

        CLASS   SFR16          

        CLASS   SFR17          

        CLASS   SFR18          

        CLASS   SFR19          

        CLASS   SFR20          

        CLASS   SFR21          

        CLASS   SFR22          

        CLASS   SFR23          

        CLASS   SFR24          

        CLASS   SFR25          

        CLASS   SFR26          

        CLASS   SFR27          

        CLASS   SFR28          

        CLASS   SFR29          

        CLASS   SFR30          

        CLASS   SFR31          

        CLASS   CONFIG         
                config                             8007     8007        2         0

        CLASS   IDLOC          

        CLASS   BANK31         

        CLASS   BANK30         

        CLASS   BANK29         

        CLASS   BANK28         

        CLASS   BANK27         

        CLASS   BANK26         

        CLASS   BANK25         

        CLASS   BANK24         

        CLASS   BANK23         

        CLASS   BANK22         

        CLASS   BANK21         

        CLASS   BANK20         

        CLASS   BANK19         

        CLASS   BANK18         

        CLASS   BANK17         

        CLASS   BANK16         

        CLASS   BANK15         

        CLASS   BANK14         

        CLASS   BANK13         

        CLASS   BANK12         

        CLASS   BANK11         

        CLASS   BANK10         

        CLASS   BANK9          

        CLASS   BANK8          

        CLASS   BANK7          

        CLASS   BANK6          

        CLASS   BANK5          

        CLASS   BANK4          

        CLASS   BANK3          

        CLASS   BANK2          

        CLASS   EEDATA         



SEGMENTS        Name                           Load    Length   Top    Selector   Space  Class     Delta

                reset_vec                      000000  000001  000001         0       0  CODE        2
                intentry                       000004  0003DD  0003E1         8       0  CODE        2
                bssBANK0                       000020  000039  000059        20       1  BANK0       1
                cstackCOMMON                   000070  00000E  00007E        70       1  COMMON      1
                config                         008007  000002  008009     1000E       0  CONFIG      2


UNUSED ADDRESS RANGES

        Name                Unused          Largest block    Delta
        BANK0            00059-0006F              17           1
        BANK1            000A0-000BF              20           1
        BIGRAM           02000-0206F              70           1
        CODE             00001-00003               3           2
                         003E1-003FF              1F
        CONST            00001-00003               3           2
                         003E1-003FF              1F
        ENTRY            00001-00003               3           2
                         003E1-003FF              1F
        IDLOC            08000-08003               4           2
        RAM              00059-0006F              17           1
                         000A0-000BF              20
        SFR0             00000-0001F              20           1
        SFR1             00080-0009F              20           1
        SFR10            00500-0056F              70           1
        SFR11            00580-005EF              70           1
        SFR12            00600-0066F              70           1
        SFR13            00680-006EF              70           1
        SFR14            00700-0076F              70           1
        SFR15            00780-007EF              70           1
        SFR16            00800-0086F              70           1
        SFR17            00880-008EF              70           1
        SFR18            00900-0096F              70           1
        SFR19            00980-009EF              70           1
        SFR2             00100-0016F              70           1
        SFR20            00A00-00A6F              70           1
        SFR21            00A80-00AEF              70           1
        SFR22            00B00-00B6F              70           1
        SFR23            00B80-00BEF              70           1
        SFR24            00C00-00C6F              70           1
        SFR25            00C80-00CEF              70           1
        SFR26            00D00-00D6F              70           1
        SFR27            00D80-00DEF              70           1
        SFR28            00E00-00E6F              70           1
        SFR29            00E80-00EEF              70           1
        SFR3             00180-001EF              70           1
        SFR30            00F00-00F6F              70           1
        SFR31            00F80-00FEF              70           1
        SFR4             00200-0026F              70           1
        SFR5             00280-002EF              70           1
        SFR6             00300-0036F              70           1
        SFR7             00380-003EF              70           1
        SFR8             00400-0046F              70           1
        SFR9             00480-004EF              70           1
        STACK            02039-0206F              37           1
        STRCODE          00001-00003               3           2
                         003E1-003FF              1F
        STRING           00001-00003               3           2
                         003E1-003FF              1F

                                  Symbol Table

?___ltdiv                       cstackBANK0  00040
?___lwdiv                       cstackCOMMON 00070
?___wmul                        cstackCOMMON 00077
?i1___ltdiv                     cstackCOMMON 00070
PL10                            maintext     0029D
PL2                             text9        00256
PL4                             text9        0025D
PL6                             text9        00264
PL8                             text8        003A0
UpdateBrightness@PWMDutyCycle   cstackBANK0  00040
_ANSELA                         (abs)        0018C
_APFCONbits                     (abs)        0011D
_Blue                           nvBANK0      00056
_CheckTimerSetting              text4        00306
_CurrentColor                   bssBANK0     00035
_CycleCounter                   bssBANK0     00038
_CyclesPerTenthSecond           bssCOMMON    0007D
_DimFlag                        bssBANK0     00039
_EnableTimerZero                text6        003BB
_INTCONbits                     (abs)        0000B
_IOCAF                          (abs)        00393
_IOCANbits                      (abs)        00392
_InitSoftUART                   text3        003DB
_LATAbits                       (abs)        0010C
_LEDTickCounter                 bssBANK0     00031
_MasterCounter                  bssBANK0     0002E
_MasterTimerFlag                bssBANK0     0003A
_MasterTimerSetting             nvBANK0      0004F
_MaxBrightness                  nvBANK0      00057
_MinBrightness                  nvBANK0      00054
_ModeChange                     bssBANK0     00034
_OPTION_REGbits                 (abs)        00095
_OSCCON                         (abs)        00099
_OnOffState                     bssBANK0     00037
_PIE1bits                       (abs)        00091
_PIR1bits                       (abs)        00011
_PORTAbits                      (abs)        0000C
_PWM1CONbits                    (abs)        00D9B
_PWM2CLKCONbits                 (abs)        00DAE
_PWM2CONbits                    (abs)        00DAB
_PWM2DC                         (abs)        00DA3
_PWM2INTE                       (abs)        00DAC
_PWM2LDCONbits                  (abs)        00DAF
_PWM2OFCONbits                  (abs)        00DB0
_PWM2OFL                        (abs)        00DA7
_PWM2PH                         (abs)        00DA1
_PWM2PR                         (abs)        00DA5
_PWM3CLKCONbits                 (abs)        00DBE
_PWM3CONbits                    (abs)        00DBB
_PWM3DC                         (abs)        00DB3
_PWM3INTE                       (abs)        00DBC
_PWM3LDCONbits                  (abs)        00DBF
_PWM3OFCONbits                  (abs)        00DC0
_PWM3OFL                        (abs)        00DB7
_PWM3PH                         (abs)        00DB1
_PWM3PR                         (abs)        00DB5
_PWMDutyCycle                   bssBANK0     00028
_PulseDimming                   bssBANK0     00033
_PulseDutyCycle                 bssBANK0     00026
_PulseLimitBrightness           bssBANK0     00020
_PulseMinBrightness             bssBANK0     00022
_PulsePeriod                    nvBANK0      00052
_Pulsing                        bssBANK0     00032
_RA4                            (abs)        00064
_RA5                            (abs)        00065
_Red                            bssBANK0     00036
_StepSize                       bssBANK0     00024
_T0IE                           (abs)        0005D
_T0IF                           (abs)        0005A
_T1CONbits                      (abs)        00018
_T1GCON                         (abs)        00019
_T2CONbits                      (abs)        0001C
_TMR0                           (abs)        00015
_TMR1H                          (abs)        00017
_TMR1L                          (abs)        00016
_TRISA                          (abs)        0008C
_TRISA1                         (abs)        00461
_TRISA4                         (abs)        00464
_TempCalc                       bssBANK0     0003B
_TenthSecondsTimer              bssBANK0     0002C
_TenthSecondsTimerMax           bssBANK0     0002A
_TickCounterMax                 bssBANK0     00030
_UpdateBrightness               text2        00336
__CFG_BOREN$ON                  (abs)        00000
__CFG_CLKOUTEN$OFF              (abs)        00000
__CFG_CP$ON                     (abs)        00000
__CFG_FOSC$INTOSC               (abs)        00000
__CFG_LVP$OFF                   (abs)        00000
__CFG_MCLRE$OFF                 (abs)        00000
__CFG_WDTE$OFF                  (abs)        00000
__CFG_WRT$OFF                   (abs)        00000
__Habs1                         abs1         00000
__Hbank0                        bank0        00000
__Hbank1                        bank1        00000
__Hbank10                       bank10       00000
__Hbank11                       bank11       00000
__Hbank12                       bank12       00000
__Hbank13                       bank13       00000
__Hbank14                       bank14       00000
__Hbank15                       bank15       00000
__Hbank16                       bank16       00000
__Hbank17                       bank17       00000
__Hbank18                       bank18       00000
__Hbank19                       bank19       00000
__Hbank2                        bank2        00000
__Hbank20                       bank20       00000
__Hbank21                       bank21       00000
__Hbank22                       bank22       00000
__Hbank23                       bank23       00000
__Hbank24                       bank24       00000
__Hbank25                       bank25       00000
__Hbank26                       bank26       00000
__Hbank27                       bank27       00000
__Hbank28                       bank28       00000
__Hbank29                       bank29       00000
__Hbank3                        bank3        00000
__Hbank30                       bank30       00000
__Hbank31                       bank31       00000
__Hbank4                        bank4        00000
__Hbank5                        bank5        00000
__Hbank6                        bank6        00000
__Hbank7                        bank7        00000
__Hbank8                        bank8        00000
__Hbank9                        bank9        00000
__Hbigram                       bigram       00000
__HbssBANK0                     bssBANK0     00000
__HbssCOMMON                    bssCOMMON    00000
__Hcinit                        cinit        0018D
__Hclrtext                      clrtext      00000
__Hcode                         code         00000
__Hcommon                       common       00000
__Hconfig                       config       08009
__HcstackBANK0                  cstackBANK0  00000
__HcstackCOMMON                 cstackCOMMON 00000
__Heeprom_data                  eeprom_data  00000
__Hend_init                     end_init     00183
__Hfunctab                      functab      00000
__Hidloc                        idloc        00000
__Hinit                         init         00182
__Hintentry                     intentry     00182
__Hmaintext                     maintext     00000
__HnvBANK0                      nvBANK0      00000
__Hpa_nodes0                    pa_nodes0    00000
__Hpowerup                      powerup      00000
__Hram                          ram          00000
__Hreset_vec                    reset_vec    00001
__Hsfr0                         sfr0         00000
__Hsfr1                         sfr1         00000
__Hsfr10                        sfr10        00000
__Hsfr11                        sfr11        00000
__Hsfr12                        sfr12        00000
__Hsfr13                        sfr13        00000
__Hsfr14                        sfr14        00000
__Hsfr15                        sfr15        00000
__Hsfr16                        sfr16        00000
__Hsfr17                        sfr17        00000
__Hsfr18                        sfr18        00000
__Hsfr19                        sfr19        00000
__Hsfr2                         sfr2         00000
__Hsfr20                        sfr20        00000
__Hsfr21                        sfr21        00000
__Hsfr22                        sfr22        00000
__Hsfr23                        sfr23        00000
__Hsfr24                        sfr24        00000
__Hsfr25                        sfr25        00000
__Hsfr26                        sfr26        00000
__Hsfr27                        sfr27        00000
__Hsfr28                        sfr28        00000
__Hsfr29                        sfr29        00000
__Hsfr3                         sfr3         00000
__Hsfr30                        sfr30        00000
__Hsfr31                        sfr31        00000
__Hsfr4                         sfr4         00000
__Hsfr5                         sfr5         00000
__Hsfr6                         sfr6         00000
__Hsfr7                         sfr7         00000
__Hsfr8                         sfr8         00000
__Hsfr9                         sfr9         00000
__Hspace_0                      (abs)        08009
__Hspace_1                      (abs)        0007E
__Hspace_2                      (abs)        00000
__Hspace_3                      (abs)        00000
__Hstack                        stack        00000
__Hstrings                      strings      00000
__Htext                         text         00000
__Labs1                         abs1         00000
__Lbank0                        bank0        00000
__Lbank1                        bank1        00000
__Lbank10                       bank10       00000
__Lbank11                       bank11       00000
__Lbank12                       bank12       00000
__Lbank13                       bank13       00000
__Lbank14                       bank14       00000
__Lbank15                       bank15       00000
__Lbank16                       bank16       00000
__Lbank17                       bank17       00000
__Lbank18                       bank18       00000
__Lbank19                       bank19       00000
__Lbank2                        bank2        00000
__Lbank20                       bank20       00000
__Lbank21                       bank21       00000
__Lbank22                       bank22       00000
__Lbank23                       bank23       00000
__Lbank24                       bank24       00000
__Lbank25                       bank25       00000
__Lbank26                       bank26       00000
__Lbank27                       bank27       00000
__Lbank28                       bank28       00000
__Lbank29                       bank29       00000
__Lbank3                        bank3        00000
__Lbank30                       bank30       00000
__Lbank31                       bank31       00000
__Lbank4                        bank4        00000
__Lbank5                        bank5        00000
__Lbank6                        bank6        00000
__Lbank7                        bank7        00000
__Lbank8                        bank8        00000
__Lbank9                        bank9        00000
__Lbigram                       bigram       00000
__LbssBANK0                     bssBANK0     00000
__LbssCOMMON                    bssCOMMON    00000
__Lcinit                        cinit        00183
__Lclrtext                      clrtext      00000
__Lcode                         code         00000
__Lcommon                       common       00000
__Lconfig                       config       08007
__LcstackBANK0                  cstackBANK0  00000
__LcstackCOMMON                 cstackCOMMON 00000
__Leeprom_data                  eeprom_data  00000
__Lend_init                     end_init     00182
__Lfunctab                      functab      00000
__Lidloc                        idloc        00000
__Linit                         init         00182
__Lintentry                     intentry     00004
__Lmaintext                     maintext     00000
__LnvBANK0                      nvBANK0      00000
__Lpa_nodes0                    pa_nodes0    00000
__Lpowerup                      powerup      00000
__Lram                          ram          00000
__Lreset_vec                    reset_vec    00000
__Lsfr0                         sfr0         00000
__Lsfr1                         sfr1         00000
__Lsfr10                        sfr10        00000
__Lsfr11                        sfr11        00000
__Lsfr12                        sfr12        00000
__Lsfr13                        sfr13        00000
__Lsfr14                        sfr14        00000
__Lsfr15                        sfr15        00000
__Lsfr16                        sfr16        00000
__Lsfr17                        sfr17        00000
__Lsfr18                        sfr18        00000
__Lsfr19                        sfr19        00000
__Lsfr2                         sfr2         00000
__Lsfr20                        sfr20        00000
__Lsfr21                        sfr21        00000
__Lsfr22                        sfr22        00000
__Lsfr23                        sfr23        00000
__Lsfr24                        sfr24        00000
__Lsfr25                        sfr25        00000
__Lsfr26                        sfr26        00000
__Lsfr27                        sfr27        00000
__Lsfr28                        sfr28        00000
__Lsfr29                        sfr29        00000
__Lsfr3                         sfr3         00000
__Lsfr30                        sfr30        00000
__Lsfr31                        sfr31        00000
__Lsfr4                         sfr4         00000
__Lsfr5                         sfr5         00000
__Lsfr6                         sfr6         00000
__Lsfr7                         sfr7         00000
__Lsfr8                         sfr8         00000
__Lsfr9                         sfr9         00000
__Lspace_0                      (abs)        00000
__Lspace_1                      (abs)        00000
__Lspace_2                      (abs)        00000
__Lspace_3                      (abs)        00000
__Lstack                        stack        00000
__Lstrings                      strings      00000
__Ltext                         text         00000
__S0                            (abs)        08009
__S1                            (abs)        0007E
__S2                            (abs)        00000
___int_sp                       stack        00000
___latbits                      (abs)        00000
___ltdiv                        text5        002A2
___ltdiv@counter                cstackBANK0  00049
___ltdiv@dividend               cstackBANK0  00043
___ltdiv@divisor                cstackBANK0  00040
___ltdiv@quotient               cstackBANK0  00046
___lwdiv                        text13       0035D
___lwdiv@counter                cstackCOMMON 00076
___lwdiv@dividend               cstackCOMMON 00072
___lwdiv@divisor                cstackCOMMON 00070
___lwdiv@quotient               cstackCOMMON 00074
___sp                           stack        00000
___wmul                         text12       003A6
___wmul@multiplicand            cstackCOMMON 00079
___wmul@multiplier              cstackCOMMON 00077
___wmul@product                 cstackCOMMON 0007B
__end_ofPL10                    maintext     002A2
__end_ofPL2                     text9        0025D
__end_ofPL4                     text9        00264
__end_ofPL6                     text9        0026B
__end_ofPL8                     text8        003A6
__end_of_CheckTimerSetting      text4        00336
__end_of_EnableTimerZero        text6        003C9
__end_of_InitSoftUART           text3        003E1
__end_of_UpdateBrightness       text2        0035D
__end_of___ltdiv                text5        002D4
__end_of___lwdiv                text13       00382
__end_of___wmul                 text12       003BB
__end_of__initialization        cinit        0018A
__end_of_initPIC                text1        00227
__end_of_isr                    intentry     00182
__end_of_main                   maintext     0029D
__end_ofi1_CheckTimerSetting    text9        00256
__end_ofi1_EnableTimerZero      text11       003D5
__end_ofi1_UpdateBrightness     text8        003A0
__end_ofi1___ltdiv              text10       00306
__initialization                cinit        00183
__pbssBANK0                     bssBANK0     00020
__pbssCOMMON                    bssCOMMON    0007D
__pcstackBANK0                  cstackBANK0  0003C
__pcstackCOMMON                 cstackCOMMON 00070
__pintentry                     intentry     00004
__pmaintext                     maintext     0026B
__pnvBANK0                      nvBANK0      0004F
__ptext1                        text1        0018D
__ptext10                       text10       002D4
__ptext11                       text11       003C9
__ptext12                       text12       003A6
__ptext13                       text13       0035D
__ptext2                        text2        00336
__ptext3                        text3        003DB
__ptext4                        text4        00306
__ptext5                        text5        002A2
__ptext6                        text6        003BB
__ptext8                        text8        00382
__ptext9                        text9        00227
__size_of_CheckTimerSetting     (abs)        00000
__size_of_EnableTimerZero       (abs)        00000
__size_of_InitSoftUART          (abs)        00000
__size_of_UpdateBrightness      (abs)        00000
__size_of___ltdiv               (abs)        00000
__size_of___lwdiv               (abs)        00000
__size_of___wmul                (abs)        00000
__size_of_initPIC               (abs)        00000
__size_of_isr                   (abs)        00000
__size_of_main                  (abs)        00000
__size_ofi1_CheckTimerSetting   (abs)        00000
__size_ofi1_EnableTimerZero     (abs)        00000
__size_ofi1_UpdateBrightness    (abs)        00000
__size_ofi1___ltdiv             (abs)        00000
_initPIC                        text1        0018D
_isr                            intentry     00004
_isr$1377                       cstackBANK0  0003E
_main                           maintext     0026B
btemp                           (abs)        0007E
clear_ram0                      clrtext      003D5
end_of_initialization           cinit        0018A
i1UpdateBrightness@PWMDutyCycle cstackCOMMON 00070
i1_CheckTimerSetting            text9        00227
i1_EnableTimerZero              text11       003C9
i1_UpdateBrightness             text8        00382
i1___ltdiv                      text10       002D4
i1___ltdiv@counter              cstackCOMMON 00079
i1___ltdiv@dividend             cstackCOMMON 00073
i1___ltdiv@divisor              cstackCOMMON 00070
i1___ltdiv@quotient             cstackCOMMON 00076
int$flags                       (abs)        0007E
intlevel0                       functab      00000
intlevel1                       functab      00000
intlevel2                       functab      00000
intlevel3                       functab      00000
intlevel4                       functab      00000
intlevel5                       functab      00000
reset_vec                       reset_vec    00000
stackhi                         (abs)        0206F
stacklo                         (abs)        02039
start                           init         00182
start_initialization            cinit        00183
wtemp0                          (abs)        0007E


FUNCTION INFORMATION:

 *************** function _main *****************
 Defined at:
		line 46 in file "GTS 1000 EL V2.c"
 Parameters:    Size  Location     Type
		None
 Auto vars:     Size  Location     Type
		None
 Return value:  Size  Location     Type
                  1    wreg      void 
 Registers used:
		wreg, status,2, status,0, pclath, cstack
 Tracked objects:
		On entry : 
		On exit  : 
		Unchanged: 
 Data sizes:     COMMON   BANK0   BANK1
      Params:         0       0       0
      Locals:         0       0       0
      Temps:          0       2       0
      Totals:         0       2       0
Total ram usage:        2 bytes
 Hardware stack levels required when called:    6
 This function calls:
		_UpdateBrightness
		_initPIC
 This function is called by:
		Startup code after reset
 This function uses a non-reentrant model


 *************** function _initPIC *****************
 Defined at:
		line 11 in file "init.c"
 Parameters:    Size  Location     Type
		None
 Auto vars:     Size  Location     Type
		None
 Return value:  Size  Location     Type
                  1    wreg      void 
 Registers used:
		wreg, status,2, status,0, pclath, cstack
 Tracked objects:
		On entry : 
		On exit  : 
		Unchanged: 
 Data sizes:     COMMON   BANK0   BANK1
      Params:         0       0       0
      Locals:         0       0       0
      Temps:          0       2       0
      Totals:         0       2       0
Total ram usage:        2 bytes
 Hardware stack levels used:    1
 Hardware stack levels required when called:    5
 This function calls:
		_CheckTimerSetting
		_EnableTimerZero
		_InitSoftUART
		_UpdateBrightness
 This function is called by:
		_main
 This function uses a non-reentrant model


 *************** function _UpdateBrightness *****************
 Defined at:
		line 292 in file "GTS 1000 EL V2.c"
 Parameters:    Size  Location     Type
  PWMDutyCycle    2    4[BANK0 ] int 
 Auto vars:     Size  Location     Type
		None
 Return value:  Size  Location     Type
                  2    4[BANK0 ] int 
 Registers used:
		wreg, status,2, status,0
 Tracked objects:
		On entry : 
		On exit  : 
		Unchanged: 
 Data sizes:     COMMON   BANK0   BANK1
      Params:         0       2       0
      Locals:         0       0       0
      Temps:          0       0       0
      Totals:         0       2       0
Total ram usage:        2 bytes
 Hardware stack levels used:    1
 Hardware stack levels required when called:    3
 This function calls:
		Nothing
 This function is called by:
		_initPIC
		_main
 This function uses a non-reentrant model


 *************** function _InitSoftUART *****************
 Defined at:
		line 5 in file "Software_UART.c"
 Parameters:    Size  Location     Type
		None
 Auto vars:     Size  Location     Type
		None
 Return value:  Size  Location     Type
                  1    wreg      void 
 Registers used:
		None
 Tracked objects:
		On entry : 
		On exit  : 
		Unchanged: 
 Data sizes:     COMMON   BANK0   BANK1
      Params:         0       0       0
      Locals:         0       0       0
      Temps:          0       0       0
      Totals:         0       0       0
Total ram usage:        0 bytes
 Hardware stack levels used:    1
 Hardware stack levels required when called:    3
 This function calls:
		Nothing
 This function is called by:
		_initPIC
 This function uses a non-reentrant model


 *************** function _CheckTimerSetting *****************
 Defined at:
		line 329 in file "GTS 1000 EL V2.c"
 Parameters:    Size  Location     Type
		None
 Auto vars:     Size  Location     Type
		None
 Return value:  Size  Location     Type
                  1    wreg      void 
 Registers used:
		wreg, status,2, status,0, pclath, cstack
 Tracked objects:
		On entry : 
		On exit  : 
		Unchanged: 
 Data sizes:     COMMON   BANK0   BANK1
      Params:         0       0       0
      Locals:         0       0       0
      Temps:          0       1       0
      Totals:         0       1       0
Total ram usage:        1 bytes
 Hardware stack levels used:    1
 Hardware stack levels required when called:    4
 This function calls:
		_EnableTimerZero
		___ltdiv
 This function is called by:
		_initPIC
 This function uses a non-reentrant model


 *************** function ___ltdiv *****************
 Defined at:
		line 6 in file "C:\Program Files (x86)\Microchip\xc8\v1.45\sources\common\ltdiv.c"
 Parameters:    Size  Location     Type
  divisor         3    4[BANK0 ] unsigned um
  dividend        3    7[BANK0 ] unsigned um
 Auto vars:     Size  Location     Type
  quotient        3   10[BANK0 ] unsigned um
  counter         1   13[BANK0 ] unsigned char 
 Return value:  Size  Location     Type
                  3    4[BANK0 ] unsigned um
 Registers used:
		wreg, status,2, status,0
 Tracked objects:
		On entry : 
		On exit  : 
		Unchanged: 
 Data sizes:     COMMON   BANK0   BANK1
      Params:         0       6       0
      Locals:         0       4       0
      Temps:          0       0       0
      Totals:         0      10       0
Total ram usage:       10 bytes
 Hardware stack levels used:    1
 Hardware stack levels required when called:    3
 This function calls:
		Nothing
 This function is called by:
		_CheckTimerSetting
 This function uses a non-reentrant model


 *************** function _EnableTimerZero *****************
 Defined at:
		line 366 in file "GTS 1000 EL V2.c"
 Parameters:    Size  Location     Type
		None
 Auto vars:     Size  Location     Type
		None
 Return value:  Size  Location     Type
                  1    wreg      void 
 Registers used:
		wreg, status,2
 Tracked objects:
		On entry : 
		On exit  : 
		Unchanged: 
 Data sizes:     COMMON   BANK0   BANK1
      Params:         0       0       0
      Locals:         0       0       0
      Temps:          0       1       0
      Totals:         0       1       0
Total ram usage:        1 bytes
 Hardware stack levels used:    1
 Hardware stack levels required when called:    3
 This function calls:
		Nothing
 This function is called by:
		_initPIC
		_CheckTimerSetting
 This function uses a non-reentrant model


 *************** function _isr *****************
 Defined at:
		line 86 in file "GTS 1000 EL V2.c"
 Parameters:    Size  Location     Type
		None
 Auto vars:     Size  Location     Type
		None
 Return value:  Size  Location     Type
                  1    wreg      void 
 Registers used:
		wreg, status,2, status,0, pclath, cstack
 Tracked objects:
		On entry : 
		On exit  : 
		Unchanged: 
 Data sizes:     COMMON   BANK0   BANK1
      Params:         0       0       0
      Locals:         0       2       0
      Temps:          0       2       0
      Totals:         0       4       0
Total ram usage:        4 bytes
 Hardware stack levels used:    1
 Hardware stack levels required when called:    2
 This function calls:
		___lwdiv
		___wmul
		i1_CheckTimerSetting
		i1_UpdateBrightness
 This function is called by:
		Interrupt level 1
 This function uses a non-reentrant model


 *************** function i1_UpdateBrightness *****************
 Defined at:
		line 292 in file "GTS 1000 EL V2.c"
 Parameters:    Size  Location     Type
  PWMDutyCycle    2    0[COMMON] int 
 Auto vars:     Size  Location     Type
		None
 Return value:  Size  Location     Type
                  2    0[COMMON] int 
 Registers used:
		wreg, status,2, status,0
 Tracked objects:
		On entry : 
		On exit  : 
		Unchanged: 
 Data sizes:     COMMON   BANK0   BANK1
      Params:         2       0       0
      Locals:         0       0       0
      Temps:          0       0       0
      Totals:         2       0       0
Total ram usage:        2 bytes
 Hardware stack levels used:    1
 This function calls:
		Nothing
 This function is called by:
		_isr
 This function uses a non-reentrant model


 *************** function i1_CheckTimerSetting *****************
 Defined at:
		line 329 in file "GTS 1000 EL V2.c"
 Parameters:    Size  Location     Type
		None
 Auto vars:     Size  Location     Type
		None
 Return value:  Size  Location     Type
                  1    wreg      void 
 Registers used:
		wreg, status,2, status,0, pclath, cstack
 Tracked objects:
		On entry : 
		On exit  : 
		Unchanged: 
 Data sizes:     COMMON   BANK0   BANK1
      Params:         0       0       0
      Locals:         0       0       0
      Temps:          1       0       0
      Totals:         1       0       0
Total ram usage:        1 bytes
 Hardware stack levels used:    1
 Hardware stack levels required when called:    1
 This function calls:
		i1_EnableTimerZero
		i1___ltdiv
 This function is called by:
		_isr
 This function uses a non-reentrant model


 *************** function i1___ltdiv *****************
 Defined at:
		line 6 in file "C:\Program Files (x86)\Microchip\xc8\v1.45\sources\common\ltdiv.c"
 Parameters:    Size  Location     Type
  divisor         3    0[COMMON] unsigned um
  dividend        3    3[COMMON] unsigned um
 Auto vars:     Size  Location     Type
  __ltdiv         3    6[COMMON] unsigned um
  __ltdiv         1    9[COMMON] unsigned char 
 Return value:  Size  Location     Type
                  3    0[COMMON] unsigned um
 Registers used:
		wreg, status,2, status,0
 Tracked objects:
		On entry : 
		On exit  : 
		Unchanged: 
 Data sizes:     COMMON   BANK0   BANK1
      Params:         6       0       0
      Locals:         4       0       0
      Temps:          0       0       0
      Totals:        10       0       0
Total ram usage:       10 bytes
 Hardware stack levels used:    1
 This function calls:
		Nothing
 This function is called by:
		i1_CheckTimerSetting
 This function uses a non-reentrant model


 *************** function i1_EnableTimerZero *****************
 Defined at:
		line 366 in file "GTS 1000 EL V2.c"
 Parameters:    Size  Location     Type
		None
 Auto vars:     Size  Location     Type
		None
 Return value:  Size  Location     Type
                  1    wreg      void 
 Registers used:
		wreg, status,2
 Tracked objects:
		On entry : 
		On exit  : 
		Unchanged: 
 Data sizes:     COMMON   BANK0   BANK1
      Params:         0       0       0
      Locals:         0       0       0
      Temps:          1       0       0
      Totals:         1       0       0
Total ram usage:        1 bytes
 Hardware stack levels used:    1
 This function calls:
		Nothing
 This function is called by:
		i1_CheckTimerSetting
 This function uses a non-reentrant model


 *************** function ___wmul *****************
 Defined at:
		line 15 in file "C:\Program Files (x86)\Microchip\xc8\v1.45\sources\common\Umul16.c"
 Parameters:    Size  Location     Type
  multiplier      2    7[COMMON] unsigned int 
  multiplicand    2    9[COMMON] unsigned int 
 Auto vars:     Size  Location     Type
  product         2   11[COMMON] unsigned int 
 Return value:  Size  Location     Type
                  2    7[COMMON] unsigned int 
 Registers used:
		wreg, status,2, status,0
 Tracked objects:
		On entry : 
		On exit  : 
		Unchanged: 
 Data sizes:     COMMON   BANK0   BANK1
      Params:         4       0       0
      Locals:         2       0       0
      Temps:          0       0       0
      Totals:         6       0       0
Total ram usage:        6 bytes
 Hardware stack levels used:    1
 This function calls:
		Nothing
 This function is called by:
		_isr
 This function uses a non-reentrant model


 *************** function ___lwdiv *****************
 Defined at:
		line 6 in file "C:\Program Files (x86)\Microchip\xc8\v1.45\sources\common\lwdiv.c"
 Parameters:    Size  Location     Type
  divisor         2    0[COMMON] unsigned int 
  dividend        2    2[COMMON] unsigned int 
 Auto vars:     Size  Location     Type
  quotient        2    4[COMMON] unsigned int 
  counter         1    6[COMMON] unsigned char 
 Return value:  Size  Location     Type
                  2    0[COMMON] unsigned int 
 Registers used:
		wreg, status,2, status,0
 Tracked objects:
		On entry : 
		On exit  : 
		Unchanged: 
 Data sizes:     COMMON   BANK0   BANK1
      Params:         4       0       0
      Locals:         3       0       0
      Temps:          0       0       0
      Totals:         7       0       0
Total ram usage:        7 bytes
 Hardware stack levels used:    1
 This function calls:
		Nothing
 This function is called by:
		_isr
 This function uses a non-reentrant model



MODULE INFORMATION

Module		Function		Class		Link	Load	Size
C:\Program Files (x86)\Microchip\xc8\v1.45\sources\common\Umul16.c
		___wmul        		CODE           	03A6	0000	22

C:\Program Files (x86)\Microchip\xc8\v1.45\sources\common\Umul16.c estimated size: 22

GTS 1000 EL V2.c
		_main          		CODE           	026B	0000	51
		_UpdateBrightness		CODE           	0336	0000	40
		_EnableTimerZero		CODE           	03BB	0000	15
		_isr           		CODE           	0004	0000	383
		_CheckTimerSetting		CODE           	0306	0000	49

GTS 1000 EL V2.c estimated size: 538

shared
		PL8            		CODE           	03A0	0000	7
		i1_EnableTimerZero		CODE           	03C9	0000	13
		i1_UpdateBrightness		CODE           	0382	0000	31
		i1___ltdiv     		CODE           	02D4	0000	51
		__initialization		CODE           	0183	0000	8
		i1_CheckTimerSetting		CODE           	0227	0000	48
		PL2            		CODE           	0256	0000	8
		PL10           		CODE           	029D	0000	6
		PL4            		CODE           	025D	0000	8
		PL6            		CODE           	0264	0000	8

shared estimated size: 188

C:\Program Files (x86)\Microchip\xc8\v1.45\sources\common\lwdiv.c
		___lwdiv       		CODE           	035D	0000	38

C:\Program Files (x86)\Microchip\xc8\v1.45\sources\common\lwdiv.c estimated size: 38

Software_UART.c
		_InitSoftUART  		CODE           	03DB	0000	7

Software_UART.c estimated size: 7

init.c
		_initPIC       		CODE           	018D	0000	155

init.c estimated size: 155

C:\Program Files (x86)\Microchip\xc8\v1.45\sources\common\ltdiv.c
		___ltdiv       		CODE           	02A2	0000	51

C:\Program Files (x86)\Microchip\xc8\v1.45\sources\common\ltdiv.c estimated size: 51

